:100000000C9434000C943E000C943E000C943E0082
:100010000C943E000C943E000C943E000C943E0068
:100020000C943E000C943E000C943E000C943E0058
:100030000C943E000C943E000C943E000C943E0048
:100040000C9411010C943E000C943E000C943E0064
:100050000C943E000C943E000C943E000C943E0028
:100060000C943E000C943E0011241FBECFEFD8E04C
:10007000DEBFCDBF0E94E6000C942B030C94000061
:100080008AB18C6F8AB9ECE7F0E08081806480836C
:10009000EAE7F0E0808186688083808180648083E5
:1000A0008FE19EE4909387008093860082E880939E
:1000B00080008AE1809381008CED95E09093890027
:1000C00080938800EEE6F0E080818160808310926A
:1000D000B00087E08093B10082E08093700088E4F4
:1000E0008093B30078940895BC01990F880B990B05
:1000F0000E94320220E030E044E353E40E94880191
:1001000020E030E04AE754E40E94BE0220E030E004
:100110004AE754E40E941C010E9401027093890086
:10012000609388008FE493EC0197F1F700C0000022
:10013000EAE7F0E080818064808380917A0086FD28
:10014000FCCF609178007091790080E090E00E948F
:10015000300220E030EC4FE754E40E94880120E0B8
:1001600030E040EA50E40E94BE0220E030E04AE77E
:1001700054E40E94BE0220E030E040EA50E40E94D5
:1001800088010E94FA01CB0108958BB184628BB97A
:100190008BB18F768BB98FEF87BD88BD08958BB1FA
:1001A0008B7D8BB98BB180618BB98BB18F778BB91C
:1001B00088EC87BD88BD08958BB184608BB98BB105
:1001C0008F748BB988EC87BD88BD08950E9440006C
:1001D0008AE590E00E9474008C0186E490E00E9421
:1001E0007400EC018EE690E00E947400C017D10705
:1001F00034F0801791071CF00E94C50008C0C81792
:10020000D9071CF40E94CF0002C00E94DC002FE737
:100210008AE196E0215080409040E1F700C0000064
:10022000D7CF1F920F920FB60F9211240F900FBECF
:100230000F901F9018955058BB27AA270E94330192
:100240000C9484020E94760238F00E947D0220F015
:1002500039F49F3F19F426F40C9473020EF4E095E0
:10026000E7FB0C946D02E92F0E94950258F3BA1730
:10027000620773078407950720F079F4A6F50C94BC
:10028000B7020EF4E0950B2EBA2FA02D0B01B90189
:1002900090010C01CA01A0011124FF27591B99F0FC
:1002A000593F50F4503E68F11A16F040A22F232F08
:1002B000342F4427585FF3CF469537952795A79558
:1002C000F0405395C9F77EF41F16BA0B620B730BFF
:1002D000840BBAF09150A1F0FF0FBB1F661F771F70
:1002E000881FC2F70EC0BA0F621F731F841F48F425
:1002F000879577956795B795F7959E3F08F0B0CFAE
:100300009395880F08F09927EE0F97958795089594
:100310000E949C010C9484020E947D0258F00E946D
:10032000760240F029F45F3F29F00C946D025111E0
:100330000C94B8020C9473020E94950268F39923FE
:10034000B1F3552391F3951B550BBB27AA276217D1
:100350007307840738F09F5F5F4F220F331F441FDE
:10036000AA1FA9F335D00E2E3AF0E0E832D0915012
:100370005040E695001CCAF72BD0FE2F29D0660FFF
:10038000771F881FBB1F261737074807AB07B0E842
:1003900009F0BB0B802DBF01FF2793585F4F3AF048
:1003A0009E3F510578F00C946D020C94B8025F3FAB
:1003B000E4F3983ED4F3869577956795B795F795CE
:1003C0009F5FC9F7880F911D9695879597F90895B6
:1003D000E1E0660F771F881FBB1F62177307840752
:1003E000BA0720F0621B730B840BBA0BEE1F88F761
:1003F000E09508950E9401026894B1110C94B8022E
:1004000008950E949D0288F09F5798F0B92F992770
:10041000B751B0F0E1F0660F771F881F991F1AF0EF
:10042000BA95C9F714C0B13091F00E94B702B1E09B
:1004300008950C94B702672F782F8827B85F39F09A
:10044000B93FCCF3869577956795B395D9F73EF488
:1004500090958095709561957F4F8F4F9F4F089530
:10046000E89409C097FB3EF490958095709561954E
:100470007F4F8F4F9F4F9923A9F0F92F96E9BB2704
:100480009395F695879577956795B795F111F8CF80
:10049000FAF4BB0F11F460FF1BC06F5F7F4F8F4FEB
:1004A0009F4F16C0882311F096E911C0772321F0E1
:1004B0009EE8872F762F05C0662371F096E8862F79
:1004C00070E060E02AF09A95660F771F881FDAF7D0
:1004D000880F9695879597F9089597F99F6780E813
:1004E00070E060E008959FEF80EC089500240A9486
:1004F0001616170618060906089500240A941216FF
:100500001306140605060895092E0394000C11F431
:10051000882352F0BB0F40F4BF2B11F460FF04C0DE
:100520006F5F7F4F8F4F9F4F089557FD9058440F37
:10053000551F59F05F3F71F04795880F97FB991F42
:1005400061F09F3F79F087950895121613061406FF
:10055000551FF2CF4695F1DF08C01616170618068C
:10056000991FF1CF86957105610508940895E89467
:10057000BB2766277727CB0197F908950E94D10200
:100580000C9484020E94760238F00E947D0220F0D2
:10059000952311F00C946D020C94730211240C94A9
:1005A000B8020E94950270F3959FC1F3950F50E039
:1005B000551F629FF001729FBB27F00DB11D639F15
:1005C000AA27F00DB11DAA1F649F6627B00DA11DBB
:1005D000661F829F2227B00DA11D621F739FB00D61
:1005E000A11D621F839FA00D611D221F749F3327D1
:1005F000A00D611D231F849F600D211D822F762F6A
:100600006A2F11249F5750409AF0F1F088234AF046
:10061000EE0FFF1FBB1F661F771F881F91505040B2
:10062000A9F79E3F510580F00C946D020C94B8021E
:100630005F3FE4F3983ED4F3869577956795B79539
:10064000F795E7959F5FC1F7FE2B880F911D969553
:0A065000879597F90895F894FFCFFD
:00000001FF
